{
  "_format": "hh-sol-artifact-1",
  "contractName": "BlastHiRoll",
  "sourceName": "contracts/BlastHiRoll.sol",
  "abi": [
    {
      "inputs": [],
      "stateMutability": "nonpayable",
      "type": "constructor"
    },
    {
      "anonymous": false,
      "inputs": [
        {
          "indexed": true,
          "internalType": "address",
          "name": "player",
          "type": "address"
        },
        {
          "indexed": false,
          "internalType": "uint256",
          "name": "amount",
          "type": "uint256"
        },
        {
          "indexed": false,
          "internalType": "bool",
          "name": "betHigh",
          "type": "bool"
        }
      ],
      "name": "BetPlaced",
      "type": "event"
    },
    {
      "anonymous": false,
      "inputs": [
        {
          "indexed": true,
          "internalType": "address",
          "name": "player",
          "type": "address"
        },
        {
          "indexed": false,
          "internalType": "uint256",
          "name": "result",
          "type": "uint256"
        },
        {
          "indexed": false,
          "internalType": "bool",
          "name": "won",
          "type": "bool"
        },
        {
          "indexed": false,
          "internalType": "uint256",
          "name": "payout",
          "type": "uint256"
        }
      ],
      "name": "GameResult",
      "type": "event"
    },
    {
      "anonymous": false,
      "inputs": [
        {
          "indexed": false,
          "internalType": "uint256",
          "name": "newPayoutRate",
          "type": "uint256"
        }
      ],
      "name": "PayoutRateChanged",
      "type": "event"
    },
    {
      "anonymous": false,
      "inputs": [
        {
          "indexed": true,
          "internalType": "address",
          "name": "player",
          "type": "address"
        },
        {
          "indexed": false,
          "internalType": "uint256",
          "name": "amount",
          "type": "uint256"
        }
      ],
      "name": "RewardAccumulated",
      "type": "event"
    },
    {
      "anonymous": false,
      "inputs": [
        {
          "indexed": true,
          "internalType": "address",
          "name": "player",
          "type": "address"
        },
        {
          "indexed": false,
          "internalType": "uint256",
          "name": "amount",
          "type": "uint256"
        }
      ],
      "name": "RewardWithdrawn",
      "type": "event"
    },
    {
      "inputs": [],
      "name": "checkRewardBalance",
      "outputs": [
        {
          "internalType": "uint256",
          "name": "",
          "type": "uint256"
        }
      ],
      "stateMutability": "view",
      "type": "function"
    },
    {
      "inputs": [],
      "name": "getBalance",
      "outputs": [
        {
          "internalType": "uint256",
          "name": "",
          "type": "uint256"
        }
      ],
      "stateMutability": "view",
      "type": "function"
    },
    {
      "inputs": [],
      "name": "minimumBet",
      "outputs": [
        {
          "internalType": "uint256",
          "name": "",
          "type": "uint256"
        }
      ],
      "stateMutability": "view",
      "type": "function"
    },
    {
      "inputs": [],
      "name": "owner",
      "outputs": [
        {
          "internalType": "address",
          "name": "",
          "type": "address"
        }
      ],
      "stateMutability": "view",
      "type": "function"
    },
    {
      "inputs": [],
      "name": "payoutRate",
      "outputs": [
        {
          "internalType": "uint256",
          "name": "",
          "type": "uint256"
        }
      ],
      "stateMutability": "view",
      "type": "function"
    },
    {
      "inputs": [
        {
          "internalType": "bool",
          "name": "betHigh",
          "type": "bool"
        }
      ],
      "name": "placeBet",
      "outputs": [],
      "stateMutability": "payable",
      "type": "function"
    },
    {
      "inputs": [
        {
          "internalType": "address",
          "name": "",
          "type": "address"
        }
      ],
      "name": "playerRewards",
      "outputs": [
        {
          "internalType": "uint256",
          "name": "",
          "type": "uint256"
        }
      ],
      "stateMutability": "view",
      "type": "function"
    },
    {
      "inputs": [
        {
          "internalType": "uint256",
          "name": "newMinimumBet",
          "type": "uint256"
        }
      ],
      "name": "setMinimumBet",
      "outputs": [],
      "stateMutability": "nonpayable",
      "type": "function"
    },
    {
      "inputs": [
        {
          "internalType": "uint256",
          "name": "newPayoutRate",
          "type": "uint256"
        }
      ],
      "name": "setPayoutRate",
      "outputs": [],
      "stateMutability": "nonpayable",
      "type": "function"
    },
    {
      "inputs": [
        {
          "internalType": "uint256",
          "name": "amount",
          "type": "uint256"
        }
      ],
      "name": "withdrawFunds",
      "outputs": [],
      "stateMutability": "nonpayable",
      "type": "function"
    },
    {
      "inputs": [],
      "name": "withdrawReward",
      "outputs": [],
      "stateMutability": "nonpayable",
      "type": "function"
    },
    {
      "stateMutability": "payable",
      "type": "receive"
    }
  ],
  "bytecode": "0x608060405266038d7ea4c6800060015560b960025534801561002057600080fd5b50336000806101000a81548173ffffffffffffffffffffffffffffffffffffffff021916908373ffffffffffffffffffffffffffffffffffffffff160217905550610f6d806100706000396000f3fe6080604052600436106100a05760003560e01c80638772ae3c116100645780638772ae3c146101705780638da5cb5b14610199578063c38a8afd146101c4578063c885bc58146101ef578063e7ed562514610206578063f314d51b14610243576100a7565b8063096a3778146100ac57806312065fe0146100c8578063155dd5ee146100f35780632b4353f21461011c57806348eaee6614610147576100a7565b366100a757005b600080fd5b6100c660048036038101906100c1919061099a565b61026e565b005b3480156100d457600080fd5b506100dd6104c0565b6040516100ea91906109e0565b60405180910390f35b3480156100ff57600080fd5b5061011a60048036038101906101159190610a27565b6104c8565b005b34801561012857600080fd5b50610131610603565b60405161013e91906109e0565b60405180910390f35b34801561015357600080fd5b5061016e60048036038101906101699190610a27565b610609565b005b34801561017c57600080fd5b5061019760048036038101906101929190610a27565b6106d8565b005b3480156101a557600080fd5b506101ae610770565b6040516101bb9190610a95565b60405180910390f35b3480156101d057600080fd5b506101d9610794565b6040516101e691906109e0565b60405180910390f35b3480156101fb57600080fd5b5061020461079a565b005b34801561021257600080fd5b5061022d60048036038101906102289190610adc565b6108fe565b60405161023a91906109e0565b60405180910390f35b34801561024f57600080fd5b50610258610916565b60405161026591906109e0565b60405180910390f35b6001543410156102b3576040517f08c379a00000000000000000000000000000000000000000000000000000000081526004016102aa90610b8c565b60405180910390fd5b6000600a44426102c39190610bdb565b6102cd9190610c3e565b905060008280156102df575060058210155b806102f45750821580156102f35750600582105b5b90503373ffffffffffffffffffffffffffffffffffffffff167ff8e99859e696debf4ef1752d671f759f7f63a1116efe995d789edfb3849c3549348560405161033e929190610c7e565b60405180910390a2801561046757600060646002543461035e9190610ca7565b6103689190610ce9565b905080600360003373ffffffffffffffffffffffffffffffffffffffff1673ffffffffffffffffffffffffffffffffffffffff16815260200190815260200160002060008282546103b99190610bdb565b925050819055503373ffffffffffffffffffffffffffffffffffffffff167f0683e7a316732dfffc744a768cd7959faa44d563f48d0905509071c3e487c85f8460018460405161040b93929190610d1a565b60405180910390a23373ffffffffffffffffffffffffffffffffffffffff167fb3b4667f891ecf03572656631c771b3dcd751391d4b45f2ccb40eac2d4ad15028260405161045991906109e0565b60405180910390a2506104bb565b3373ffffffffffffffffffffffffffffffffffffffff167f0683e7a316732dfffc744a768cd7959faa44d563f48d0905509071c3e487c85f836000806040516104b293929190610d96565b60405180910390a25b505050565b600047905090565b60008054906101000a900473ffffffffffffffffffffffffffffffffffffffff1673ffffffffffffffffffffffffffffffffffffffff163373ffffffffffffffffffffffffffffffffffffffff1614610556576040517f08c379a000000000000000000000000000000000000000000000000000000000815260040161054d90610e3f565b60405180910390fd5b47811115610599576040517f08c379a000000000000000000000000000000000000000000000000000000000815260040161059090610eab565b60405180910390fd5b60008054906101000a900473ffffffffffffffffffffffffffffffffffffffff1673ffffffffffffffffffffffffffffffffffffffff166108fc829081150290604051600060405180830381858888f193505050501580156105ff573d6000803e3d6000fd5b5050565b60025481565b60008054906101000a900473ffffffffffffffffffffffffffffffffffffffff1673ffffffffffffffffffffffffffffffffffffffff163373ffffffffffffffffffffffffffffffffffffffff1614610697576040517f08c379a000000000000000000000000000000000000000000000000000000000815260040161068e90610e3f565b60405180910390fd5b806002819055507f3628889e54e8449d8e0a3aade40083b97cc4ec88c1712a181cb379d2d44c93fc816040516106cd91906109e0565b60405180910390a150565b60008054906101000a900473ffffffffffffffffffffffffffffffffffffffff1673ffffffffffffffffffffffffffffffffffffffff163373ffffffffffffffffffffffffffffffffffffffff1614610766576040517f08c379a000000000000000000000000000000000000000000000000000000000815260040161075d90610e3f565b60405180910390fd5b8060018190555050565b60008054906101000a900473ffffffffffffffffffffffffffffffffffffffff1681565b60015481565b6000600360003373ffffffffffffffffffffffffffffffffffffffff1673ffffffffffffffffffffffffffffffffffffffff16815260200190815260200160002054905060008111610821576040517f08c379a000000000000000000000000000000000000000000000000000000000815260040161081890610f17565b60405180910390fd5b3373ffffffffffffffffffffffffffffffffffffffff166108fc829081150290604051600060405180830381858888f19350505050158015610867573d6000803e3d6000fd5b503373ffffffffffffffffffffffffffffffffffffffff167f1d3eee4ca001cff39eec6ec7615aacf2f2bd61791273830728ba00ccbd6e1337826040516108ae91906109e0565b60405180910390a26000600360003373ffffffffffffffffffffffffffffffffffffffff1673ffffffffffffffffffffffffffffffffffffffff1681526020019081526020016000208190555050565b60036020528060005260406000206000915090505481565b6000600360003373ffffffffffffffffffffffffffffffffffffffff1673ffffffffffffffffffffffffffffffffffffffff16815260200190815260200160002054905090565b600080fd5b60008115159050919050565b61097781610962565b811461098257600080fd5b50565b6000813590506109948161096e565b92915050565b6000602082840312156109b0576109af61095d565b5b60006109be84828501610985565b91505092915050565b6000819050919050565b6109da816109c7565b82525050565b60006020820190506109f560008301846109d1565b92915050565b610a04816109c7565b8114610a0f57600080fd5b50565b600081359050610a21816109fb565b92915050565b600060208284031215610a3d57610a3c61095d565b5b6000610a4b84828501610a12565b91505092915050565b600073ffffffffffffffffffffffffffffffffffffffff82169050919050565b6000610a7f82610a54565b9050919050565b610a8f81610a74565b82525050565b6000602082019050610aaa6000830184610a86565b92915050565b610ab981610a74565b8114610ac457600080fd5b50565b600081359050610ad681610ab0565b92915050565b600060208284031215610af257610af161095d565b5b6000610b0084828501610ac7565b91505092915050565b600082825260208201905092915050565b7f42657420646f6573206e6f74206d65657420746865206d696e696d756d20626560008201527f7420726571756972656d656e742e000000000000000000000000000000000000602082015250565b6000610b76602e83610b09565b9150610b8182610b1a565b604082019050919050565b60006020820190508181036000830152610ba581610b69565b9050919050565b7f4e487b7100000000000000000000000000000000000000000000000000000000600052601160045260246000fd5b6000610be6826109c7565b9150610bf1836109c7565b9250828201905080821115610c0957610c08610bac565b5b92915050565b7f4e487b7100000000000000000000000000000000000000000000000000000000600052601260045260246000fd5b6000610c49826109c7565b9150610c54836109c7565b925082610c6457610c63610c0f565b5b828206905092915050565b610c7881610962565b82525050565b6000604082019050610c9360008301856109d1565b610ca06020830184610c6f565b9392505050565b6000610cb2826109c7565b9150610cbd836109c7565b9250828202610ccb816109c7565b91508282048414831517610ce257610ce1610bac565b5b5092915050565b6000610cf4826109c7565b9150610cff836109c7565b925082610d0f57610d0e610c0f565b5b828204905092915050565b6000606082019050610d2f60008301866109d1565b610d3c6020830185610c6f565b610d4960408301846109d1565b949350505050565b6000819050919050565b6000819050919050565b6000610d80610d7b610d7684610d51565b610d5b565b6109c7565b9050919050565b610d9081610d65565b82525050565b6000606082019050610dab60008301866109d1565b610db86020830185610c6f565b610dc56040830184610d87565b949350505050565b7f4f6e6c792074686520636f6e7472616374206f776e65722063616e207065726660008201527f6f726d207468697320616374696f6e2e00000000000000000000000000000000602082015250565b6000610e29603083610b09565b9150610e3482610dcd565b604082019050919050565b60006020820190508181036000830152610e5881610e1c565b9050919050565b7f496e73756666696369656e742066756e64732e00000000000000000000000000600082015250565b6000610e95601383610b09565b9150610ea082610e5f565b602082019050919050565b60006020820190508181036000830152610ec481610e88565b9050919050565b7f4e6f207265776172647320746f2077697468647261772e000000000000000000600082015250565b6000610f01601783610b09565b9150610f0c82610ecb565b602082019050919050565b60006020820190508181036000830152610f3081610ef4565b905091905056fea26469706673582212201a560450573c3fdeb9136e8a42c5784c26cc42fddc5a53c9a634612aac94d08864736f6c63430008130033",
  "linkReferences": {},
  "deployedLinkReferences": {}
}