{
  "_format": "hh-sol-artifact-1",
  "contractName": "BlastDiceGame",
  "sourceName": "contracts/BlastDiceGame.sol",
  "abi": [
    {
      "inputs": [],
      "stateMutability": "nonpayable",
      "type": "constructor"
    },
    {
      "anonymous": false,
      "inputs": [
        {
          "indexed": true,
          "internalType": "address",
          "name": "player",
          "type": "address"
        },
        {
          "indexed": false,
          "internalType": "uint256",
          "name": "amount",
          "type": "uint256"
        },
        {
          "indexed": false,
          "internalType": "uint256",
          "name": "guess",
          "type": "uint256"
        }
      ],
      "name": "BetPlaced",
      "type": "event"
    },
    {
      "anonymous": false,
      "inputs": [
        {
          "indexed": true,
          "internalType": "address",
          "name": "player",
          "type": "address"
        },
        {
          "indexed": false,
          "internalType": "uint256",
          "name": "result",
          "type": "uint256"
        },
        {
          "indexed": false,
          "internalType": "bool",
          "name": "won",
          "type": "bool"
        },
        {
          "indexed": false,
          "internalType": "uint256",
          "name": "payout",
          "type": "uint256"
        }
      ],
      "name": "GameResult",
      "type": "event"
    },
    {
      "anonymous": false,
      "inputs": [
        {
          "indexed": false,
          "internalType": "uint256",
          "name": "newPayoutRate",
          "type": "uint256"
        }
      ],
      "name": "PayoutRateChanged",
      "type": "event"
    },
    {
      "anonymous": false,
      "inputs": [
        {
          "indexed": true,
          "internalType": "address",
          "name": "player",
          "type": "address"
        },
        {
          "indexed": false,
          "internalType": "uint256",
          "name": "amount",
          "type": "uint256"
        }
      ],
      "name": "RewardWithdrawn",
      "type": "event"
    },
    {
      "inputs": [],
      "name": "getAllowedBetAmount",
      "outputs": [
        {
          "internalType": "uint256",
          "name": "",
          "type": "uint256"
        },
        {
          "internalType": "uint256",
          "name": "",
          "type": "uint256"
        }
      ],
      "stateMutability": "view",
      "type": "function"
    },
    {
      "inputs": [],
      "name": "getAllowedNumberRange",
      "outputs": [
        {
          "internalType": "uint256",
          "name": "",
          "type": "uint256"
        },
        {
          "internalType": "uint256",
          "name": "",
          "type": "uint256"
        }
      ],
      "stateMutability": "view",
      "type": "function"
    },
    {
      "inputs": [],
      "name": "getContractBalance",
      "outputs": [
        {
          "internalType": "uint256",
          "name": "",
          "type": "uint256"
        }
      ],
      "stateMutability": "view",
      "type": "function"
    },
    {
      "inputs": [],
      "name": "getPayoutRate",
      "outputs": [
        {
          "internalType": "uint256",
          "name": "",
          "type": "uint256"
        }
      ],
      "stateMutability": "view",
      "type": "function"
    },
    {
      "inputs": [],
      "name": "maxAllowedNumber",
      "outputs": [
        {
          "internalType": "uint256",
          "name": "",
          "type": "uint256"
        }
      ],
      "stateMutability": "view",
      "type": "function"
    },
    {
      "inputs": [],
      "name": "maximumBet",
      "outputs": [
        {
          "internalType": "uint256",
          "name": "",
          "type": "uint256"
        }
      ],
      "stateMutability": "view",
      "type": "function"
    },
    {
      "inputs": [],
      "name": "minAllowedNumber",
      "outputs": [
        {
          "internalType": "uint256",
          "name": "",
          "type": "uint256"
        }
      ],
      "stateMutability": "view",
      "type": "function"
    },
    {
      "inputs": [],
      "name": "minimumBet",
      "outputs": [
        {
          "internalType": "uint256",
          "name": "",
          "type": "uint256"
        }
      ],
      "stateMutability": "view",
      "type": "function"
    },
    {
      "inputs": [],
      "name": "owner",
      "outputs": [
        {
          "internalType": "address",
          "name": "",
          "type": "address"
        }
      ],
      "stateMutability": "view",
      "type": "function"
    },
    {
      "inputs": [],
      "name": "payoutRate",
      "outputs": [
        {
          "internalType": "uint256",
          "name": "",
          "type": "uint256"
        }
      ],
      "stateMutability": "view",
      "type": "function"
    },
    {
      "inputs": [
        {
          "internalType": "uint256",
          "name": "guess",
          "type": "uint256"
        }
      ],
      "name": "placeBet",
      "outputs": [],
      "stateMutability": "payable",
      "type": "function"
    },
    {
      "inputs": [
        {
          "internalType": "address",
          "name": "",
          "type": "address"
        }
      ],
      "name": "playerRewards",
      "outputs": [
        {
          "internalType": "uint256",
          "name": "",
          "type": "uint256"
        }
      ],
      "stateMutability": "view",
      "type": "function"
    },
    {
      "inputs": [
        {
          "internalType": "uint256",
          "name": "newMinimumBet",
          "type": "uint256"
        },
        {
          "internalType": "uint256",
          "name": "newMaximumBet",
          "type": "uint256"
        }
      ],
      "name": "setAllowedBetAmount",
      "outputs": [],
      "stateMutability": "nonpayable",
      "type": "function"
    },
    {
      "inputs": [
        {
          "internalType": "uint256",
          "name": "minNumber",
          "type": "uint256"
        },
        {
          "internalType": "uint256",
          "name": "maxNumber",
          "type": "uint256"
        }
      ],
      "name": "setAllowedNumberRange",
      "outputs": [],
      "stateMutability": "nonpayable",
      "type": "function"
    },
    {
      "inputs": [
        {
          "internalType": "uint256",
          "name": "newPayoutRate",
          "type": "uint256"
        }
      ],
      "name": "setPayoutRate",
      "outputs": [],
      "stateMutability": "nonpayable",
      "type": "function"
    },
    {
      "inputs": [
        {
          "internalType": "uint256",
          "name": "amount",
          "type": "uint256"
        }
      ],
      "name": "withdrawFunds",
      "outputs": [],
      "stateMutability": "nonpayable",
      "type": "function"
    },
    {
      "stateMutability": "payable",
      "type": "receive"
    }
  ],
  "bytecode": "0x6080604052606360015566038d7ea4c6800060025567016345785d8a00006003556001600455606360055534801561003657600080fd5b50336000806101000a81548173ffffffffffffffffffffffffffffffffffffffff021916908373ffffffffffffffffffffffffffffffffffffffff1602179055506112b0806100866000396000f3fe6080604052600436106100f75760003560e01c80636f9fb98a1161008a578063c38a8afd11610059578063c38a8afd146102f2578063e7ed56251461031d578063f47a455a1461035a578063fe10188814610385576100fe565b80636f9fb98a146102445780638da5cb5b1461026f578063a136075c1461029a578063a260b10b146102c6576100fe565b80632b4353f2116100c65780632b4353f21461019e57806348eaee66146101c95780635e87bda3146101f25780636dc66c071461021b576100fe565b806310fe7c4814610103578063155dd5ee1461011f578063227cade51461014857806329a6cc9d14610173576100fe565b366100fe57005b600080fd5b61011d60048036038101906101189190610b14565b6103b0565b005b34801561012b57600080fd5b5061014660048036038101906101419190610b14565b61067d565b005b34801561015457600080fd5b5061015d6107b8565b60405161016a9190610b50565b60405180910390f35b34801561017f57600080fd5b506101886107be565b6040516101959190610b50565b60405180910390f35b3480156101aa57600080fd5b506101b36107c4565b6040516101c09190610b50565b60405180910390f35b3480156101d557600080fd5b506101f060048036038101906101eb9190610b14565b6107ca565b005b3480156101fe57600080fd5b5061021960048036038101906102149190610b6b565b610899565b005b34801561022757600080fd5b50610242600480360381019061023d9190610b6b565b61097b565b005b34801561025057600080fd5b50610259610a5d565b6040516102669190610b50565b60405180910390f35b34801561027b57600080fd5b50610284610a65565b6040516102919190610bec565b60405180910390f35b3480156102a657600080fd5b506102af610a89565b6040516102bd929190610c07565b60405180910390f35b3480156102d257600080fd5b506102db610a9a565b6040516102e9929190610c07565b60405180910390f35b3480156102fe57600080fd5b50610307610aab565b6040516103149190610b50565b60405180910390f35b34801561032957600080fd5b50610344600480360381019061033f9190610c5c565b610ab1565b6040516103519190610b50565b60405180910390f35b34801561036657600080fd5b5061036f610ac9565b60405161037c9190610b50565b60405180910390f35b34801561039157600080fd5b5061039a610ad3565b6040516103a79190610b50565b60405180910390f35b60025434101580156103c457506003543411155b610403576040517f08c379a00000000000000000000000000000000000000000000000000000000081526004016103fa90610d0c565b60405180910390fd5b600454811015801561041757506005548111155b610456576040517f08c379a000000000000000000000000000000000000000000000000000000000815260040161044d90610d9e565b60405180910390fd5b6000606442443360405160200161046f93929190610e27565b6040516020818303038152906040528051906020012060001c6104929190610e93565b9050600081831115905060008360646104ab9190610ef3565b9050600060648260646104be9190610f27565b6001546104cb9190610f58565b346104d69190610f58565b6104e09190610f27565b90506104ea610a5d565b81111561052c576040517f08c379a000000000000000000000000000000000000000000000000000000000815260040161052390610fe6565b60405180910390fd5b3373ffffffffffffffffffffffffffffffffffffffff167e1ecf1d0c4d22f324b3ecb9cdf0e5f772bc74ac104e6626f4b3845433d031053487604051610573929190610c07565b60405180910390a28215610617573373ffffffffffffffffffffffffffffffffffffffff166108fc829081150290604051600060405180830381858888f193505050501580156105c7573d6000803e3d6000fd5b503373ffffffffffffffffffffffffffffffffffffffff167f1d3eee4ca001cff39eec6ec7615aacf2f2bd61791273830728ba00ccbd6e13378260405161060e9190610b50565b60405180910390a25b3373ffffffffffffffffffffffffffffffffffffffff167f0683e7a316732dfffc744a768cd7959faa44d563f48d0905509071c3e487c85f85858661065d57600061065f565b845b60405161066e93929190611021565b60405180910390a25050505050565b60008054906101000a900473ffffffffffffffffffffffffffffffffffffffff1673ffffffffffffffffffffffffffffffffffffffff163373ffffffffffffffffffffffffffffffffffffffff161461070b576040517f08c379a0000000000000000000000000000000000000000000000000000000008152600401610702906110ca565b60405180910390fd5b4781111561074e576040517f08c379a000000000000000000000000000000000000000000000000000000000815260040161074590611136565b60405180910390fd5b60008054906101000a900473ffffffffffffffffffffffffffffffffffffffff1673ffffffffffffffffffffffffffffffffffffffff166108fc829081150290604051600060405180830381858888f193505050501580156107b4573d6000803e3d6000fd5b5050565b60035481565b60045481565b60015481565b60008054906101000a900473ffffffffffffffffffffffffffffffffffffffff1673ffffffffffffffffffffffffffffffffffffffff163373ffffffffffffffffffffffffffffffffffffffff1614610858576040517f08c379a000000000000000000000000000000000000000000000000000000000815260040161084f906110ca565b60405180910390fd5b806001819055507f3628889e54e8449d8e0a3aade40083b97cc4ec88c1712a181cb379d2d44c93fc8160405161088e9190610b50565b60405180910390a150565b60008054906101000a900473ffffffffffffffffffffffffffffffffffffffff1673ffffffffffffffffffffffffffffffffffffffff163373ffffffffffffffffffffffffffffffffffffffff1614610927576040517f08c379a000000000000000000000000000000000000000000000000000000000815260040161091e906110ca565b60405180910390fd5b808210610969576040517f08c379a0000000000000000000000000000000000000000000000000000000008152600401610960906111c8565b60405180910390fd5b81600281905550806003819055505050565b60008054906101000a900473ffffffffffffffffffffffffffffffffffffffff1673ffffffffffffffffffffffffffffffffffffffff163373ffffffffffffffffffffffffffffffffffffffff1614610a09576040517f08c379a0000000000000000000000000000000000000000000000000000000008152600401610a00906110ca565b60405180910390fd5b808210610a4b576040517f08c379a0000000000000000000000000000000000000000000000000000000008152600401610a429061125a565b60405180910390fd5b81600481905550806005819055505050565b600047905090565b60008054906101000a900473ffffffffffffffffffffffffffffffffffffffff1681565b600080600454600554915091509091565b600080600254600354915091509091565b60025481565b60066020528060005260406000206000915090505481565b6000600154905090565b60055481565b600080fd5b6000819050919050565b610af181610ade565b8114610afc57600080fd5b50565b600081359050610b0e81610ae8565b92915050565b600060208284031215610b2a57610b29610ad9565b5b6000610b3884828501610aff565b91505092915050565b610b4a81610ade565b82525050565b6000602082019050610b656000830184610b41565b92915050565b60008060408385031215610b8257610b81610ad9565b5b6000610b9085828601610aff565b9250506020610ba185828601610aff565b9150509250929050565b600073ffffffffffffffffffffffffffffffffffffffff82169050919050565b6000610bd682610bab565b9050919050565b610be681610bcb565b82525050565b6000602082019050610c016000830184610bdd565b92915050565b6000604082019050610c1c6000830185610b41565b610c296020830184610b41565b9392505050565b610c3981610bcb565b8114610c4457600080fd5b50565b600081359050610c5681610c30565b92915050565b600060208284031215610c7257610c71610ad9565b5b6000610c8084828501610c47565b91505092915050565b600082825260208201905092915050565b7f42657420646f6573206e6f74206d65657420746865206265742073697a65207260008201527f6571756972656d656e74732e0000000000000000000000000000000000000000602082015250565b6000610cf6602c83610c89565b9150610d0182610c9a565b604082019050919050565b60006020820190508181036000830152610d2581610ce9565b9050919050565b7f4775657373206d7573742062652077697468696e2074686520616c6c6f77656460008201527f2072616e67652e00000000000000000000000000000000000000000000000000602082015250565b6000610d88602783610c89565b9150610d9382610d2c565b604082019050919050565b60006020820190508181036000830152610db781610d7b565b9050919050565b6000819050919050565b610dd9610dd482610ade565b610dbe565b82525050565b60008160601b9050919050565b6000610df782610ddf565b9050919050565b6000610e0982610dec565b9050919050565b610e21610e1c82610bcb565b610dfe565b82525050565b6000610e338286610dc8565b602082019150610e438285610dc8565b602082019150610e538284610e10565b601482019150819050949350505050565b7f4e487b7100000000000000000000000000000000000000000000000000000000600052601260045260246000fd5b6000610e9e82610ade565b9150610ea983610ade565b925082610eb957610eb8610e64565b5b828206905092915050565b7f4e487b7100000000000000000000000000000000000000000000000000000000600052601160045260246000fd5b6000610efe82610ade565b9150610f0983610ade565b9250828203905081811115610f2157610f20610ec4565b5b92915050565b6000610f3282610ade565b9150610f3d83610ade565b925082610f4d57610f4c610e64565b5b828204905092915050565b6000610f6382610ade565b9150610f6e83610ade565b9250828202610f7c81610ade565b91508282048414831517610f9357610f92610ec4565b5b5092915050565b7f496e73756666696369656e742066756e647320746f20706179206f75742e0000600082015250565b6000610fd0601e83610c89565b9150610fdb82610f9a565b602082019050919050565b60006020820190508181036000830152610fff81610fc3565b9050919050565b60008115159050919050565b61101b81611006565b82525050565b60006060820190506110366000830186610b41565b6110436020830185611012565b6110506040830184610b41565b949350505050565b7f4f6e6c792074686520636f6e7472616374206f776e65722063616e207065726660008201527f6f726d207468697320616374696f6e2e00000000000000000000000000000000602082015250565b60006110b4603083610c89565b91506110bf82611058565b604082019050919050565b600060208201905081810360008301526110e3816110a7565b9050919050565b7f496e73756666696369656e742066756e64732e00000000000000000000000000600082015250565b6000611120601383610c89565b915061112b826110ea565b602082019050919050565b6000602082019050818103600083015261114f81611113565b9050919050565b7f4d696e696d756d20626574206d757374206265206c657373207468616e206d6160008201527f78696d756d206265742e00000000000000000000000000000000000000000000602082015250565b60006111b2602a83610c89565b91506111bd82611156565b604082019050919050565b600060208201905081810360008301526111e1816111a5565b9050919050565b7f4d696e696d756d206e756d626572206d757374206265206c657373207468616e60008201527f206d6178696d756d206e756d6265722e00000000000000000000000000000000602082015250565b6000611244603083610c89565b915061124f826111e8565b604082019050919050565b6000602082019050818103600083015261127381611237565b905091905056fea2646970667358221220509cbe1f47eaead86554ea6ec07140a88afbccd40e1a271940a8f93a9ca747ea64736f6c63430008130033",
  "linkReferences": {},
  "deployedLinkReferences": {}
}