{
  "_format": "hh-sol-artifact-1",
  "contractName": "BlastCoinFlip",
  "sourceName": "contracts/BlastCoinFlip.sol",
  "abi": [
    {
      "inputs": [],
      "stateMutability": "nonpayable",
      "type": "constructor"
    },
    {
      "anonymous": false,
      "inputs": [
        {
          "indexed": true,
          "internalType": "address",
          "name": "player",
          "type": "address"
        },
        {
          "indexed": false,
          "internalType": "uint256",
          "name": "amount",
          "type": "uint256"
        },
        {
          "indexed": false,
          "internalType": "bool",
          "name": "betHigh",
          "type": "bool"
        }
      ],
      "name": "BetPlaced",
      "type": "event"
    },
    {
      "anonymous": false,
      "inputs": [
        {
          "indexed": true,
          "internalType": "address",
          "name": "player",
          "type": "address"
        },
        {
          "indexed": false,
          "internalType": "bool",
          "name": "result",
          "type": "bool"
        },
        {
          "indexed": false,
          "internalType": "bool",
          "name": "won",
          "type": "bool"
        },
        {
          "indexed": false,
          "internalType": "uint256",
          "name": "payout",
          "type": "uint256"
        }
      ],
      "name": "GameResult",
      "type": "event"
    },
    {
      "anonymous": false,
      "inputs": [
        {
          "indexed": false,
          "internalType": "uint256",
          "name": "newPayoutRate",
          "type": "uint256"
        }
      ],
      "name": "PayoutRateChanged",
      "type": "event"
    },
    {
      "anonymous": false,
      "inputs": [
        {
          "indexed": true,
          "internalType": "address",
          "name": "player",
          "type": "address"
        },
        {
          "indexed": false,
          "internalType": "uint256",
          "name": "amount",
          "type": "uint256"
        }
      ],
      "name": "RewardWithdrawn",
      "type": "event"
    },
    {
      "inputs": [],
      "name": "getAllowedBetAmount",
      "outputs": [
        {
          "internalType": "uint256",
          "name": "",
          "type": "uint256"
        },
        {
          "internalType": "uint256",
          "name": "",
          "type": "uint256"
        }
      ],
      "stateMutability": "view",
      "type": "function"
    },
    {
      "inputs": [],
      "name": "getContractBalance",
      "outputs": [
        {
          "internalType": "uint256",
          "name": "",
          "type": "uint256"
        }
      ],
      "stateMutability": "view",
      "type": "function"
    },
    {
      "inputs": [],
      "name": "getPayoutRate",
      "outputs": [
        {
          "internalType": "uint256",
          "name": "",
          "type": "uint256"
        }
      ],
      "stateMutability": "view",
      "type": "function"
    },
    {
      "inputs": [],
      "name": "maximumBet",
      "outputs": [
        {
          "internalType": "uint256",
          "name": "",
          "type": "uint256"
        }
      ],
      "stateMutability": "view",
      "type": "function"
    },
    {
      "inputs": [],
      "name": "minimumBet",
      "outputs": [
        {
          "internalType": "uint256",
          "name": "",
          "type": "uint256"
        }
      ],
      "stateMutability": "view",
      "type": "function"
    },
    {
      "inputs": [],
      "name": "owner",
      "outputs": [
        {
          "internalType": "address",
          "name": "",
          "type": "address"
        }
      ],
      "stateMutability": "view",
      "type": "function"
    },
    {
      "inputs": [],
      "name": "payoutRate",
      "outputs": [
        {
          "internalType": "uint256",
          "name": "",
          "type": "uint256"
        }
      ],
      "stateMutability": "view",
      "type": "function"
    },
    {
      "inputs": [
        {
          "internalType": "bool",
          "name": "betHigh",
          "type": "bool"
        }
      ],
      "name": "placeBet",
      "outputs": [],
      "stateMutability": "payable",
      "type": "function"
    },
    {
      "inputs": [
        {
          "internalType": "address",
          "name": "",
          "type": "address"
        }
      ],
      "name": "playerRewards",
      "outputs": [
        {
          "internalType": "uint256",
          "name": "",
          "type": "uint256"
        }
      ],
      "stateMutability": "view",
      "type": "function"
    },
    {
      "inputs": [
        {
          "internalType": "uint256",
          "name": "newMinimumBet",
          "type": "uint256"
        },
        {
          "internalType": "uint256",
          "name": "newMaximumBet",
          "type": "uint256"
        }
      ],
      "name": "setAllowedBetAmount",
      "outputs": [],
      "stateMutability": "nonpayable",
      "type": "function"
    },
    {
      "inputs": [
        {
          "internalType": "uint256",
          "name": "newPayoutRate",
          "type": "uint256"
        }
      ],
      "name": "setPayoutRate",
      "outputs": [],
      "stateMutability": "nonpayable",
      "type": "function"
    },
    {
      "inputs": [
        {
          "internalType": "uint256",
          "name": "amount",
          "type": "uint256"
        }
      ],
      "name": "withdrawFunds",
      "outputs": [],
      "stateMutability": "nonpayable",
      "type": "function"
    },
    {
      "stateMutability": "payable",
      "type": "receive"
    }
  ],
  "bytecode": "0x608060405266038d7ea4c6800060015567016345785d8a000060025560c660035534801561002c57600080fd5b50336000806101000a81548173ffffffffffffffffffffffffffffffffffffffff021916908373ffffffffffffffffffffffffffffffffffffffff160217905550610f998061007c6000396000f3fe6080604052600436106100ab5760003560e01c80636f9fb98a116100645780636f9fb98a146101a45780638da5cb5b146101cf578063a260b10b146101fa578063c38a8afd14610226578063e7ed562514610251578063f47a455a1461028e576100b2565b8063096a3778146100b7578063155dd5ee146100d3578063227cade5146100fc5780632b4353f21461012757806348eaee66146101525780635e87bda31461017b576100b2565b366100b257005b600080fd5b6100d160048036038101906100cc91906108d5565b6102b9565b005b3480156100df57600080fd5b506100fa60048036038101906100f59190610938565b61053b565b005b34801561010857600080fd5b50610111610676565b60405161011e9190610974565b60405180910390f35b34801561013357600080fd5b5061013c61067c565b6040516101499190610974565b60405180910390f35b34801561015e57600080fd5b5061017960048036038101906101749190610938565b610682565b005b34801561018757600080fd5b506101a2600480360381019061019d919061098f565b610751565b005b3480156101b057600080fd5b506101b9610833565b6040516101c69190610974565b60405180910390f35b3480156101db57600080fd5b506101e461083b565b6040516101f19190610a10565b60405180910390f35b34801561020657600080fd5b5061020f61085f565b60405161021d929190610a2b565b60405180910390f35b34801561023257600080fd5b5061023b610870565b6040516102489190610974565b60405180910390f35b34801561025d57600080fd5b5061027860048036038101906102739190610a80565b610876565b6040516102859190610974565b60405180910390f35b34801561029a57600080fd5b506102a361088e565b6040516102b09190610974565b60405180910390f35b60015434101580156102cd57506002543411155b61030c576040517f08c379a000000000000000000000000000000000000000000000000000000000815260040161030390610b30565b60405180910390fd5b600060646003543461031e9190610b7f565b6103289190610bf0565b9050610332610833565b811115610374576040517f08c379a000000000000000000000000000000000000000000000000000000000815260040161036b90610c6d565b60405180910390fd5b6000606442443360405160200161038d93929190610cf6565b6040516020818303038152906040528051906020012060001c6103b09190610d33565b90506000603282106103c35760016103c6565b60005b905060008480156103d45750815b806103e75750841580156103e6575081155b5b90503373ffffffffffffffffffffffffffffffffffffffff167ff8e99859e696debf4ef1752d671f759f7f63a1116efe995d789edfb3849c35493487604051610431929190610d73565b60405180910390a280156104d5573373ffffffffffffffffffffffffffffffffffffffff166108fc859081150290604051600060405180830381858888f19350505050158015610485573d6000803e3d6000fd5b503373ffffffffffffffffffffffffffffffffffffffff167f1d3eee4ca001cff39eec6ec7615aacf2f2bd61791273830728ba00ccbd6e1337856040516104cc9190610974565b60405180910390a25b3373ffffffffffffffffffffffffffffffffffffffff167f5df8abe1d926543dde59c0b6639f4df66ab55354f46a480b355c9ad01799c0f483838461051b57600061051d565b875b60405161052c93929190610d9c565b60405180910390a25050505050565b60008054906101000a900473ffffffffffffffffffffffffffffffffffffffff1673ffffffffffffffffffffffffffffffffffffffff163373ffffffffffffffffffffffffffffffffffffffff16146105c9576040517f08c379a00000000000000000000000000000000000000000000000000000000081526004016105c090610e45565b60405180910390fd5b4781111561060c576040517f08c379a000000000000000000000000000000000000000000000000000000000815260040161060390610eb1565b60405180910390fd5b60008054906101000a900473ffffffffffffffffffffffffffffffffffffffff1673ffffffffffffffffffffffffffffffffffffffff166108fc829081150290604051600060405180830381858888f19350505050158015610672573d6000803e3d6000fd5b5050565b60025481565b60035481565b60008054906101000a900473ffffffffffffffffffffffffffffffffffffffff1673ffffffffffffffffffffffffffffffffffffffff163373ffffffffffffffffffffffffffffffffffffffff1614610710576040517f08c379a000000000000000000000000000000000000000000000000000000000815260040161070790610e45565b60405180910390fd5b806003819055507f3628889e54e8449d8e0a3aade40083b97cc4ec88c1712a181cb379d2d44c93fc816040516107469190610974565b60405180910390a150565b60008054906101000a900473ffffffffffffffffffffffffffffffffffffffff1673ffffffffffffffffffffffffffffffffffffffff163373ffffffffffffffffffffffffffffffffffffffff16146107df576040517f08c379a00000000000000000000000000000000000000000000000000000000081526004016107d690610e45565b60405180910390fd5b808210610821576040517f08c379a000000000000000000000000000000000000000000000000000000000815260040161081890610f43565b60405180910390fd5b81600181905550806002819055505050565b600047905090565b60008054906101000a900473ffffffffffffffffffffffffffffffffffffffff1681565b600080600154600254915091509091565b60015481565b60046020528060005260406000206000915090505481565b6000600354905090565b600080fd5b60008115159050919050565b6108b28161089d565b81146108bd57600080fd5b50565b6000813590506108cf816108a9565b92915050565b6000602082840312156108eb576108ea610898565b5b60006108f9848285016108c0565b91505092915050565b6000819050919050565b61091581610902565b811461092057600080fd5b50565b6000813590506109328161090c565b92915050565b60006020828403121561094e5761094d610898565b5b600061095c84828501610923565b91505092915050565b61096e81610902565b82525050565b60006020820190506109896000830184610965565b92915050565b600080604083850312156109a6576109a5610898565b5b60006109b485828601610923565b92505060206109c585828601610923565b9150509250929050565b600073ffffffffffffffffffffffffffffffffffffffff82169050919050565b60006109fa826109cf565b9050919050565b610a0a816109ef565b82525050565b6000602082019050610a256000830184610a01565b92915050565b6000604082019050610a406000830185610965565b610a4d6020830184610965565b9392505050565b610a5d816109ef565b8114610a6857600080fd5b50565b600081359050610a7a81610a54565b92915050565b600060208284031215610a9657610a95610898565b5b6000610aa484828501610a6b565b91505092915050565b600082825260208201905092915050565b7f42657420646f6573206e6f74206d65657420746865206265742073697a65207260008201527f6571756972656d656e74732e0000000000000000000000000000000000000000602082015250565b6000610b1a602c83610aad565b9150610b2582610abe565b604082019050919050565b60006020820190508181036000830152610b4981610b0d565b9050919050565b7f4e487b7100000000000000000000000000000000000000000000000000000000600052601160045260246000fd5b6000610b8a82610902565b9150610b9583610902565b9250828202610ba381610902565b91508282048414831517610bba57610bb9610b50565b5b5092915050565b7f4e487b7100000000000000000000000000000000000000000000000000000000600052601260045260246000fd5b6000610bfb82610902565b9150610c0683610902565b925082610c1657610c15610bc1565b5b828204905092915050565b7f496e73756666696369656e742066756e647320746f20706179206f75742e0000600082015250565b6000610c57601e83610aad565b9150610c6282610c21565b602082019050919050565b60006020820190508181036000830152610c8681610c4a565b9050919050565b6000819050919050565b610ca8610ca382610902565b610c8d565b82525050565b60008160601b9050919050565b6000610cc682610cae565b9050919050565b6000610cd882610cbb565b9050919050565b610cf0610ceb826109ef565b610ccd565b82525050565b6000610d028286610c97565b602082019150610d128285610c97565b602082019150610d228284610cdf565b601482019150819050949350505050565b6000610d3e82610902565b9150610d4983610902565b925082610d5957610d58610bc1565b5b828206905092915050565b610d6d8161089d565b82525050565b6000604082019050610d886000830185610965565b610d956020830184610d64565b9392505050565b6000606082019050610db16000830186610d64565b610dbe6020830185610d64565b610dcb6040830184610965565b949350505050565b7f4f6e6c792074686520636f6e7472616374206f776e65722063616e207065726660008201527f6f726d207468697320616374696f6e2e00000000000000000000000000000000602082015250565b6000610e2f603083610aad565b9150610e3a82610dd3565b604082019050919050565b60006020820190508181036000830152610e5e81610e22565b9050919050565b7f496e73756666696369656e742066756e64732e00000000000000000000000000600082015250565b6000610e9b601383610aad565b9150610ea682610e65565b602082019050919050565b60006020820190508181036000830152610eca81610e8e565b9050919050565b7f4d696e696d756d20626574206d757374206265206c657373207468616e206d6160008201527f78696d756d206265742e00000000000000000000000000000000000000000000602082015250565b6000610f2d602a83610aad565b9150610f3882610ed1565b604082019050919050565b60006020820190508181036000830152610f5c81610f20565b905091905056fea264697066735822122050d69745dc54ca73029c97f5faa8834bee58f36518f736d5b054bacc4e7c71cf64736f6c63430008130033",
  "linkReferences": {},
  "deployedLinkReferences": {}
}